:020000040800F2
:1000000000000220D90500080706000806060008BF
:1000100006060008060600080606000800000000A4
:1000200000000000000000000000000006060008BC
:10003000060600080000000006060008D1010008BE
:100040000606000806060008060600080606000860
:100050000606000806060008060600080606000850
:08006000060600080606000870
:1000680080B500AF00F0A0FA4FF47A7000F09AF86B
:1000780000F0E9F800F015FA0021002000F0F2F98C
:100088001C4800F0DAF90021012000F0EBF91A48C9
:1000980000F0D3F94FF4FA6000F0AEF8174B1B6B81
:1000A800164A43F008031363154B1B68144A23F0E0
:1000B80040731360124B1B68114A43F0807313603E
:1000C8000021002000F0CEF90E4800F0B6F900211A
:1000D800012000F0C7F90C4800F0AFF9084B5B6944
:1000E800074A83F4805353614FF4FA7000F084F8A0
:1000F80000BFF3E72C060008340600080038024069
:10010800000C0240440600085806000880B483B07A
:1001180000AF03463960FB7197F90730002B0ADB03
:100128003B68DAB20C4997F907301201D2B20B4496
:1001380083F800230AE03B68DAB20849FB7903F048
:100148000F03043B1201D2B20B441A7600BF0C37DE
:10015800BD4680BC704700BF00E100E000ED00E054
:1001680080B582B000AF78607B68013BB3F1807FD7
:1001780001D301230FE00A4A7B68013B53600F213A
:100188004FF0FF30FFF7C2FF054B00229A60044B87
:1001980007221A60002318460837BD4680BD00BFF5
:1001A80010E000E080B582B000AF7860054B1A68B7
:1001B8007B68B2FBF3F31846FFF7D2FF00BF08379E
:1001C800BD4680BD0000002080B400AF044B1B6812
:1001D8000133034A136000BFBD4680BC704700BFAF
:1001E8000400002080B400AF024B1B681846BD46CF
:1001F80080BC70470400002080B584B000AF7860F0
:10020800FFF7F0FFF86000BFFFF7ECFF0246FB685E
:10021800D31A7A689A42F7D800BF00BF1037BD4694
:1002280080BD00BF80B483B000AF786000E000BF3D
:100238007B685A1E7A60002BF9D100BF00BF0C37CB
:10024800BD4680BC704780B400AF204B1B6C1F4A72
:1002580043F4001313641D4B1B6B1C4A43F0020349
:1002680013631B4B1B681A4A23F470431360184B23
:100278001B68174A43F420431360154B1B6A144A42
:1002880043F088431362124B5B68114A43F0C00382
:1002980053600F4B9B680E4A43F4704393600C4BBA
:1002A800DB680B4A43F4A043D3600A4B10225A6020
:1002B800084B5022DA61074B11221A62054B0122C2
:1002C8001A6000BFBD4680BC704700BF00380240BE
:1002D800000402400054004080B483B000AF0346DD
:1002E8000A46FB711346BB7100BF1E4B9B6903F0A6
:1002F8000203002BF9D11B4B1B681A4A43F4807385
:10030800136000BF174B5B6903F00103002BF9D0A2
:10031800FB79144A5B00136100BF124B5B6903F061
:100328000203002BF9D00F4B9B6900BF0D4B5B6993
:1003380003F08003002BF9D00A4ABB79136100BF90
:10034800084B5B6903F00403002BF9D0054B1B68CD
:10035800044A43F40073136000BF0C37BD4680BCE9
:10036800704700BF0054004080B584B000AF03461A
:100378000A46FB711346BB7197F9073023F00F0348
:100388005AB297F9063013435BB243F008035BB2E5
:10039800FB73FB7B43F00403DBB219462720FFF70E
:1003A8009BFF4FF4FA60FFF73DFFFB7B23F004034C
:1003B800DBB219462720FFF78FFF4FF4FA60FFF7EB
:1003C80031FF00BF1037BD4680BD80B582B000AF99
:1003D8000346FB71FB7923F00F03DBB200211846BB
:1003E800FFF7C2FFFB791B01DBB200211846FFF7BC
:1003F800BBFF4FF4FA60FFF715FF00BF0837BD4693
:1004080080BD80B582B000AF0346FB71FB7923F055
:100418000F03DBB201211846FFF7A6FFFB791B018A
:10042800DBB201211846FFF79FFF4FF4FA60FFF790
:10043800F9FE00BF0837BD4680BD80B582B000AF69
:10044800786006E07B685A1C7A601B781846FFF7CC
:10045800D8FF7B681B78002BF4D100BF00BF08379A
:10046800BD4680BD80B584B000AF03460A46FB7127
:100478001346BB71FB79002B01D1002300E0402318
:10048800FB73FA7BBB791344DBB25BB263F07F0387
:100498005BB2DBB21846FFF798FF00BF1037BD46C6
:1004A80080BD80B500AF4CF25030FFF7BBFE002195
:1004B8003020FFF759FF42F21070FFF7B3FE00211A
:1004C8003020FFF751FF42F21070FFF7ABFE00211A
:1004D8003020FFF749FF42F21070FFF7A3FE00211A
:1004E8002020FFF741FF42F21070FFF79BFE282003
:1004F800FFF76BFF0C20FFF768FF0120FFF765FF90
:1005080044F62060FFF78EFE0620FFF75EFF00BF6F
:1005180080BD80B582B000AF0123FB7135E000BF1C
:100528001E4B9B6903F00203002BF9D11B4B1B6880
:100538001A4A43F48073136000BF184B5B6903F0D9
:100548000103002BF9D0FB79144A5B00136147F2D1
:100558003050FFF767FE114B5B6903F00203002B75
:100568000AD00E4B9B690E4B5B690D4A83F480538E
:1005780053610C48FFF756FE084B1B68074A43F4C3
:1005880000731360FB790133FB71FB797E2BC6D9AD
:1005980000BF00BF0837BD4680BD00BF0054004003
:1005A800000C024020A1070080B500AF00F002F85F
:1005B80000BF80BD80B400AF034B044A1A6000BF7F
:1005C800BD4680BC704700BF000000200024F40036
:1005D8000E480F490F4A9142BEBF50F8043B41F8FC
:1005E800043BF8E70C480D4900228842B8BF40F8A0
:1005F800042BFADBFFF7D8FFFFF732FDFEE7FEE733
:100608000748016801F101010160704766060008AA
:100618000000002004000020040000200800002042
:100628000400002073697374656D6100696E696305
:1006380069616C697A61646F2100000042617265CA
:10064800206D6574616C2053544D333200000000F6
:0E0658006E6F726D616C206D6F646520200006
:040666000024F40078
:04000005080005D911
:00000001FF
