:020000040800F2
:10000000000002204D0900087B0900087A09000859
:100010007A0900087A0900087A090008000000003F
:100020000000000000000000000000007A09000845
:100030007A090008000000007A090008110200088F
:100040007A0900087A0900087A0900087A09000884
:100050007A0900087A0900087A0900087A09000874
:080060007A0900087A09000882
:0800680038090000010000004E
:1000800080B584B000AFF860B9607A6000210020CC
:1000900000F00CFAF86800F0F4F90021012000F0FB
:1000A00005FAB86800F0EDF97968034801F022FD1F
:1000B00000BF1037BD4680BDCCA5000880B500AF9D
:1000C00000F030FC4FF47A7000F090F800F0DFF8A8
:1000D00000F00BFA00F0B4FA174A18491648FFF777
:1000E000CFFF4FF4FA6000F0ABF8154B1B6B144ACE
:1000F00043F008031363134B1B68124A23F0407349
:100100001360104B1B680F4A43F0807313600E4A54
:100110000E490F48FFF7B4FF4FF4FA6000F090F873
:10012000084B5B69074A83F4805353614FF4FA70BC
:1001300000F086F800BFF3E7D4A50008E0A50008AA
:1001400000380240000C0240ECA500080CA6000894
:100150001CA6000880B483B000AF03463960FB7171
:1001600097F90730002B0ADB3B68DAB20C4997F9A4
:1001700007301201D2B20B4483F800230AE03B6837
:10018000DAB20849FB7903F00F03043B1201D2B243
:100190000B441A7600BF0C37BD4680BC704700BFC9
:1001A00000E100E000ED00E080B582B000AF7860D3
:1001B0007B68013BB3F1807F01D301230FE00A4A42
:1001C0007B68013B53600F214FF0FF30FFF7C2FF08
:1001D000054B00229A60044B07221A600023184640
:1001E0000837BD4680BD00BF10E000E080B582B09A
:1001F00000AF7860054B1A687B68B2FBF3F31846D2
:10020000FFF7D2FF00BF0837BD4680BD00000020C9
:1002100080B400AF044B1B680133034A136000BF76
:10022000BD4680BC704700BF9C08002080B400AF72
:10023000024B1B681846BD4680BC70479C080020D6
:1002400080B584B000AF7860FFF7F0FFF86000BFC2
:10025000FFF7ECFF0246FB68D31A7A689A42F7D898
:1002600000BF00BF1037BD4680BD00BF80B483B063
:1002700000AF786000E000BF7B685A1E7A60002BF8
:10028000F9D100BF00BF0C37BD4680BC704780B4B9
:1002900000AF204B1B6C1F4A43F4001313641D4B2B
:1002A0001B6B1C4A43F0020313631B4B1B681A4A67
:1002B00023F470431360184B1B68174A43F4204320
:1002C0001360154B1B6A144A43F088431362124BA8
:1002D0005B68114A43F0C00353600F4B9B680E4AA2
:1002E00043F4704393600C4BDB680B4A43F4A04328
:1002F000D3600A4B10225A60084B5022DA61074B38
:1003000011221A62054B01221A6000BFBD4680BC53
:10031000704700BF00380240000402400054004013
:1003200080B483B000AF03460A46FB711346BB712D
:1003300000BF1E4B9B6903F00203002BF9D11B4B3E
:100340001B681A4A43F48073136000BF174B5B6944
:1003500003F00103002BF9D0FB79144A5B00136111
:1003600000BF124B5B6903F00203002BF9D00F4B67
:100370009B6900BF0D4B5B6903F08003002BF9D034
:100380000A4ABB79136100BF084B5B6903F00403A1
:10039000002BF9D0054B1B68044A43F4007313602B
:1003A00000BF0C37BD4680BC704700BF0054004002
:1003B00080B584B000AF03460A46FB711346BB719B
:1003C00097F9073023F00F035AB297F90630134319
:1003D0005BB243F008035BB2FB73FB7B43F00403A7
:1003E000DBB219462720FFF79BFF4FF4FA60FFF7B7
:1003F0003DFFFB7B23F00403DBB219462720FFF708
:100400008FFF4FF4FA60FFF731FF00BF1037BD4692
:1004100080BD80B582B000AF0346FB71FB7923F04D
:100420000F03DBB200211846FFF7C2FFFB791B0167
:10043000DBB200211846FFF7BBFF4FF4FA60FFF76D
:1004400015FF00BF0837BD4680BD80B582B000AF44
:100450000346FB71FB7923F00F03DBB20121184641
:10046000FFF7A6FFFB791B01DBB201211846FFF75E
:100470009FFF4FF4FA60FFF7F9FE00BF0837BD4653
:1004800080BD80B582B000AF786006E07B685A1C02
:100490007A601B781846FFF7D8FF7B681B78002B23
:1004A000F4D100BF00BF0837BD4680BD80B584B021
:1004B00000AF03460A46FB711346BB71FB79002B64
:1004C00001D1002300E04023FB73FA7BBB79134486
:1004D000DBB25BB263F07F035BB2DBB21846FFF7BF
:1004E00098FF00BF1037BD4680BD80B500AF4CF20D
:1004F0005030FFF7BBFE00213020FFF759FF42F2DA
:100500001070FFF7B3FE00213020FFF751FF42F2D9
:100510001070FFF7ABFE00213020FFF749FF42F2D9
:100520001070FFF7A3FE00212020FFF741FF42F2E9
:100530001070FFF79BFE2820FFF76BFF0C20FFF7E2
:1005400068FF0120FFF765FF44F62060FFF78EFE8D
:100550000620FFF75EFF00BF80BD80B582B000AF10
:100560000123FB7135E000BF1E4B9B6903F00203C2
:10057000002BF9D11B4B1B681A4A43F4807313609C
:1005800000BF184B5B6903F00103002BF9D0FB7926
:10059000144A5B00136147F23050FFF767FE114BBE
:1005A0005B6903F00203002B0AD00E4B9B690E4BD4
:1005B0005B690D4A83F4805353610C48FFF756FE84
:1005C000084B1B68074A43F400731360FB7901333F
:1005D000FB71FB797E2BC6D900BF00BF0837BD4633
:1005E00080BD00BF00540040000C024020A1070065
:1005F00080B483B000AF0346FB7197F90730002B3E
:100600000BDBFB7903F01F02064997F907305B0902
:10061000012000FA02F241F8232000BF0C37BD464A
:1006200080BC704700E100E080B582B000AF786028
:10063000786800F06BF87B6818460837BD4680BDC7
:1006400080B500AF2D4B1B6B2C4A43F001031363A5
:100650002B4B1B682A4A23F010031360284B1B689E
:10066000274A43F020031360254B1B68244A23F0DC
:1006700040031360224B1B68214A43F08003136040
:100680001F4B1B6A1E4A43F4807313621C4B1B6A88
:100690001B4A43F400731362194B1B6A184A43F454
:1006A00080631362164B1B6A154A23F400631362BE
:1006B000134B1B6A124A43F4E0431362104B1B6A4C
:1006C0000F4A23F4004313620C4B1B6C0B4A43F498
:1006D000003313644FF4E1310A4800F03FF80A4B4D
:1006E00042F22C02DA60084BDB68074A43F40053FD
:1006F000D3602620FFF77CFF00BF80BD003802409A
:10070000000002400024F4000044004080B483B0A4
:1007100000AF786000BF074B1B6803F08003002B1D
:10072000F9D07B68034ADBB2536000BF0C37BD468B
:1007300080BC70470044004080B483B000AF786054
:1007400039603B685A087B681A443B68B2FBF3F394
:100750009BB218460C37BD4680BC704780B582B04E
:1007600000AF7860396039687868FFF7E5FF0346C5
:100770001A46034B9A6000BF0837BD4680BD00BFD4
:100780000044004080B483B000AF234B1B6803F0EB
:100790002003002B3BD0204B5B68FB711F4B1B7869
:1007A000002B06D0FB790A2B03D11C4B00221A70B8
:1007B0002DE0FB790D2B02D0FB790A2B13D1184BBE
:1007C0001B78DBB21A46174B00219954164B0122B5
:1007D0001A70134B00221A70FB790D2B17D10F4B97
:1007E00001221A7013E00E4B1B78DBB2622B0BD880
:1007F0000B4B1B78DBB25A1CD1B2094A1170194657
:10080000084AFB79535402E0054B00221A700C375A
:10081000BD4680BC704700BF004400400609002070
:1008200004090020A00800200509002080B586B03A
:1008300000AFF860B9607A6000237B6109E07B69F2
:10084000BA6813441B781846FFF7EEFE7B69013344
:100850007B617A697B689A42F1DB7B6818461837BE
:10086000BD4680BD80B483B000AF78604FF0FF33E9
:1008700018460C37BD4680BC704780B483B000AFCB
:10088000786039603B684FF400525A600023184684
:100890000C37BD4680BC704780B483B000AF786031
:1008A000012318460C37BD4680BC704780B485B024
:1008B00000AFF860B9607A60002318461437BD466F
:1008C00080BC704780B485B000AFF860B9607A60D2
:1008D000002318461437BD4680BC704780B483B0EF
:1008E00000AF78604FF0FF3318460C37BD4680BC30
:1008F000704780B483B000AF786000BFFDE780B47C
:1009000083B000AF786039604FF0FF3318460C3782
:10091000BD4680BC704780B400AF01231846BD4679
:1009200080BC704780B500AF00F002F800BF80BD0A
:1009300080B400AF034B044A1A6000BFBD4680BCC0
:10094000704700BF000000200024F4000E480F494B
:100950000F4A9142BEBF50F8043B41F8043BF8E710
:100960000C480D4900228842B8BF40F8042BFADB3E
:10097000FFF7D8FFFFF7A2FBFEE7FEE70748016895
:1009800001F101010160704734AE00080000002051
:100990009C0800209C080020640C00209C0800207B
:1009A00002780B78012A28BF9A4240F0D8806DE97E
:1009B000044540EA0104CDE902676FF0000C4FEAFC
:1009C00044721AB380EA010414F0070F6BD100F0EF
:1009D000070420F0070004F0030521F007014FEAA7
:1009E000C505F0E8042314F0040FF1E804670CFADD
:1009F00005F462EA040266EA04060BD063EA040323
:100A0000624667EA0407664604E000BFF0E8042394
:100A1000F1E8046782FA4CF582EA0604A4FA8CF441
:100A20006CBB83FA4CF583EA0705A5FA8CF595B9FA
:100A300050E9022351E9026782FA4CF582EA060482
:100A4000A4FA8CF483FA4CF583EA0705A5FA8CF531
:100A50002543DBD09CB92DBAB5FA85F424F0070400
:100A600027FA04F1DDE9026723FA04F303F0FF003B
:100A700001F0FF01FDE80445A0EB0100704724BA36
:100A8000B4FA84F424F0070426FA04F1DDE90267DD
:100A900022FA04F202F0FF0001F0FF01FDE8044534
:100AA000A0EB0100704714F0030F3CD110F00304D9
:100AB00028D150F8082B51F8083B82FA4CF582EA0D
:100AC0000305A5FA8CF55DB950F8042C51F8043CE7
:100AD00082FA4CF582EA0305A5FA8CF5002DE8D0E0
:100AE0002DBAB5FA85F424F0070423FA04F122FAAA
:100AF00004F202F0FF0001F0FF01FDE80445A0EB65
:100B0000010070474FEAC40420F0030050F8082B9E
:100B100021F0030151F8083B0CFA04F462EA0402E4
:100B200063EA0403C9E710F003041DD0A1EB04013C
:100B300020F00300E40750F8042B06D012D28B7883
:100B40005FFAA2F4E41A06D12BB1CB785FFAB2F4C3
:100B5000E41A00D133B920465DF8104B7047A2EB80
:100B60000300704701F1040150F8042BCC0721F079
:100B7000030151F8043B48D824D222F07F4482FA82
:100B80004CF594EA1325A5FA8CF50AD165B951F80C
:100B9000043B84EA0204B4EB036F0ED150F8042B3B
:100BA000EBE74FEA132355E035F07F454DD1087848
:100BB000FDE80445C0F1000070474FEA126203F0FF
:100BC000FF0347E002EA1C4482FA4CF594EA13451D
:100BD000A5FA8CF50AD165B951F8043B84EA020400
:100BE000B4EB034F0CD150F8042BEBE74FEA13435F
:100BF00030E015EA1C4528D10B884FEA124229E063
:100C00004FEA124203EA1C4324E002F0FF0482FA96
:100C10004CF594EA1365A5FA8CF50AD165B951F83B
:100C2000043B84EA0204B4EB032F09D150F8042BEF
:100C3000EBE74FEA13630DE015F0FF0F05D10B68EA
:100C40004FEA122223F07F4304E04FF00000FDE85A
:100C50000445704712BA1BBA82FA4CF482EA0304C4
:100C6000A4FA8CF5B5FA85F402FA04F203FA04F357
:100C70004FEA1260FDE80445A0EB1360704700BF27
:100C800001F0FF01102A2BDB10F0070F08D010F83D
:100C9000013B013A8B422DD010F0070F42B3F6D141
:100CA000F0B441EA012141EA014122F007047FF05A
:100CB00000070023F0E80256083C85EA010586EAB1
:100CC000010685FA47F5A3FA87F586FA47F6A5FAED
:100CD00087F68EB9EED1F0BC01F0FF0102F00702F9
:100CE00032B110F8013B013A83EA010313B1F8D1A4
:100CF0000020704701387047002D06BF3546033885
:100D0000073815F0010F07D1013015F4807F02BFBD
:100D1000013015F4C03F0130F0BC0138704700BF0E
:100D2000844641EA000313F003036DD1403A41D3F6
:100D300051F8043B40F8043B51F8043B40F8043BB5
:100D400051F8043B40F8043B51F8043B40F8043BA5
:100D500051F8043B40F8043B51F8043B40F8043B95
:100D600051F8043B40F8043B51F8043B40F8043B85
:100D700051F8043B40F8043B51F8043B40F8043B75
:100D800051F8043B40F8043B51F8043B40F8043B65
:100D900051F8043B40F8043B51F8043B40F8043B55
:100DA00051F8043B40F8043B51F8043B40F8043B45
:100DB000403ABDD2303211D351F8043B40F8043BE5
:100DC00051F8043B40F8043B51F8043B40F8043B25
:100DD00051F8043B40F8043B103AEDD20C3205D3F5
:100DE00051F8043B40F8043B043AF9D2043208D0ED
:100DF000D2071CBF11F8013B00F8013B01D30B885F
:100E000003806046704700BF082A13D38B078DD03C
:100E100010F003038AD0C3F10403D21ADB071CBF0E
:100E200011F8013B00F8013B80D331F8023B20F878
:100E3000023B7BE7043AD9D3013A11F8013B00F8B1
:100E4000013BF9D20B7803704B7843708B78837039
:100E50006046704700000000000000000000000035
:100E60000000000000000000000000000000000082
:100E70000000000000000000000000000000000072
:100E800030B490F800F020F007016FF0000C10F083
:100E9000070491F820F040F048804FF000046FF014
:100EA0000700D1E9002391F840F000F1080082FA30
:100EB0004CF2A4FA8CF283FA4CF3A2FA8CF34BBBFB
:100EC000D1E9022382FA4CF200F10800A4FA8CF274
:100ED00083FA4CF3A2FA8CF3E3B9D1E9042382FA42
:100EE0004CF200F10800A4FA8CF283FA4CF3A2FA57
:100EF0008CF37BB9D1E9062301F1200182FA4CF28F
:100F000000F10800A4FA8CF283FA4CF3A2FA8CF3F5
:100F1000002BC6D0002A04BF04301A4612BAB2FA17
:100F200082F200EBD20030BC7047D1E9002304F01C
:100F30000305C4F100004FEAC50514F0040F91F851
:100F400040F00CFA05F562EA05021CBF63EA0503EE
:100F500062464FF00004AAE770B54FF0FF0C4CF466
:100F6000E06C1CEA11541DBF1CEA135594EA0C0FE7
:100F700095EA0C0F00F0DEF82C4481EA030621EA22
:100F80004C5123EA4C5350EA013518BF52EA03355D
:100F900041F4801143F4801338D0A0FB02CE4FF00F
:100FA0000005E1FB02E506F00042E0FB03E54FF03F
:100FB0000006E1FB03569CF0000F18BF4EF0010E37
:100FC000A4F1FF04B6F5007F64F5407404D25FEA33
:100FD0004E0E6D4146EB060642EAC62141EA5551E6
:100FE0004FEAC52040EA5E504FEACE2EB4F1FD0C28
:100FF00088BFBCF5E06F1ED8BEF1004F08BF5FEAA6
:10100000500E50F1000041EB045170BD06F0004657
:1010100046EA010140EA020081EA0301B4EB5C0404
:10102000C2BFD4EB0C0541EA045170BD41F48011FC
:101030004FF0000E013C00F3AB8014F1360FDEBF21
:10104000002001F0004170BDC4F10004203C35DAFD
:101050000C341BDC04F11404C4F1200500FA05F380
:1010600020FA04F001FA05F240EA020001F0004221
:1010700021F0004110EBD37021FA04F642EB060197
:101080005EEA430E08BF20EAD37070BDC4F10C04C1
:10109000C4F1200500FA04F320FA05F001FA04F285
:1010A00040EA020001F0004110EBD37041F1000171
:1010B0005EEA430E08BF20EAD37070BDC4F120057C
:1010C00000FA05F24EEA020E20FA04F301FA05F2E4
:1010D00043EA020321FA04F001F0004121FA04F28C
:1010E00020EA020000EBD3705EEA430E08BF20EA5C
:1010F000D37070BD94F0000F0FD101F00046400096
:1011000041EB010111F4801F08BF013CF7D041EA17
:10111000060195F0000F18BF704703F0004652001B
:1011200043EB030313F4801F08BF013DF7D043EAEC
:101130000603704794EA0C0F0CEA135518BF95EAA2
:101140000C0F0CD050EA410618BF52EA4306D1D129
:1011500081EA030101F000414FF0000070BD50EA48
:10116000410606BF1046194652EA430619D094EAD2
:101170000C0F02D150EA013613D195EA0C0F05D1BC
:1011800052EA03361CBF104619460AD181EA030110
:1011900001F0004141F0FE4141F470014FF00000C8
:1011A00070BD41F0FE4141F4780170BD81F0004115
:1011B00002E000BF83F0004330B54FEA41044FEA3C
:1011C000430594EA050F08BF90EA020F1FBF54EAD7
:1011D000000C55EA020C7FEA645C7FEA655C00F073
:1011E000E2804FEA5454D4EB5555B8BF6D420CDD44
:1011F0002C4480EA020281EA030382EA000083EAC7
:10120000010180EA020281EA0303362D88BF30BD66
:1012100011F0004F4FEA01314FF4801C4CEA1131BC
:1012200002D0404261EB410113F0004F4FEA03331B
:101230004CEA133302D0524263EB430394EA050FA6
:1012400000F0A780A4F10104D5F1200E0DDB02FA15
:101250000EFC22FA05F2801841F1000103FA0EF2A9
:10126000801843FA05F359410EE0A5F120050EF16F
:10127000200E012A03FA0EFC28BF4CF0020C43FAA0
:1012800005F3C01851EBE37101F0004507D54FF0AD
:10129000000EDCF1000C7EEB00006EEB0101B1F5FD
:1012A000801F1BD3B1F5001F0CD349085FEA300043
:1012B0004FEA3C0C04F101044FEA445212F5800F4E
:1012C00080F09A80BCF1004F08BF5FEA500C50F1EB
:1012D000000041EB045141EA050130BD5FEA4C0CCE
:1012E000404141EB0101013C28BFB1F5801FE9D22B
:1012F00091F0000F04BF01460020B1FA81F308BF4E
:101300002033A3F10B03B3F120020CDA0C3208DD19
:1013100002F1140CC2F10C0201FA0CF021FA02F1F4
:101320000CE002F11402D8BFC2F1200C01FA02F164
:1013300020FA0CFCDCBF41EA0C019040E41AA2BF89
:1013400001EB0451294330BD6FEA04041F3C1CDA51
:101350000C340EDC04F11404C4F1200220FA04F071
:1013600001FA02F340EA030021FA04F345EA03011B
:1013700030BDC4F10C04C4F1200220FA02F001FADD
:1013800004F340EA0300294630BD21FA04F029465F
:1013900030BD94F0000F83F4801306BF81F48011F8
:1013A0000134013D4EE77FEA645C18BF7FEA655C6B
:1013B00029D094EA050F08BF90EA020F05D054EA3D
:1013C000000C04BF1946104630BD91EA030F1EBF42
:1013D0000021002030BD5FEA545C05D14000494146
:1013E00028BF41F0004130BD14F580043CBF01F539
:1013F000801130BD01F0004545F0FE4141F470011F
:101400004FF0000030BD7FEA645C1ABF19461046F9
:101410007FEA655C1CBF0B46024650EA013406BFFA
:1014200052EA033591EA030F41F4002130BD00BFB9
:1014300090F0000F04BF0021704730B54FF4806476
:1014400004F132044FF000054FF0000150E700BFF7
:1014500090F0000F04BF0021704730B54FF4806456
:1014600004F1320410F0004548BF40424FF0000143
:101470003EE700BF42004FEAE2014FEA31014FEA86
:1014800002701FBF12F07F4393F07F4F81F06051D5
:10149000704732F07F4208BF704793F07F4F04BF20
:1014A00041F40021704730B54FF4607401F00045FD
:1014B00021F000411CE700BF50EA010208BF70475D
:1014C00030B54FF000050AE050EA010208BF70474E
:1014D00030B511F0004502D5404261EB41014FF4B7
:1014E000806404F132045FEA915C3FF4D8AE4FF0BF
:1014F00003025FEADC0C18BF03325FEADC0C18BFA2
:10150000033202EBDC02C2F1200300FA03FC20FAF2
:1015100002F001FA03FE40EA0E0021FA02F114443F
:10152000BDE600BF70B54FF0FF0C4CF4E06C1CEA58
:1015300011541DBF1CEA135594EA0C0F95EA0C0FC9
:1015400000F0DEF82C4481EA030621EA4C5123EA3C
:101550004C5350EA013518BF52EA033541F480116B
:1015600043F4801338D0A0FB02CE4FF00005E1FB1E
:1015700002E506F00042E0FB03E54FF00006E1FB68
:1015800003569CF0000F18BF4EF0010EA4F1FF04AB
:10159000B6F5007F64F5407404D25FEA4E0E6D41EB
:1015A00046EB060642EAC62141EA55514FEAC520FC
:1015B00040EA5E504FEACE2EB4F1FD0C88BFBCF578
:1015C000E06F1ED8BEF1004F08BF5FEA500E50F129
:1015D000000041EB045170BD06F0004646EA0101EF
:1015E00040EA020081EA0301B4EB5C04C2BFD4EB21
:1015F0000C0541EA045170BD41F480114FF0000E1A
:10160000013C00F3AB8014F1360FDEBF002001F087
:10161000004170BDC4F10004203C35DA0C341BDC01
:1016200004F11404C4F1200500FA05F320FA04F0D3
:1016300001FA05F240EA020001F0004221F0004107
:1016400010EBD37021FA04F642EB06015EEA430E7A
:1016500008BF20EAD37070BDC4F10C04C4F12005AA
:1016600000FA04F320FA05F001FA04F240EA02005D
:1016700001F0004110EBD37041F100015EEA430E2E
:1016800008BF20EAD37070BDC4F1200500FA05F24E
:101690004EEA020E20FA04F301FA05F243EA0203CD
:1016A00021FA04F001F0004121FA04F220EA0200DC
:1016B00000EBD3705EEA430E08BF20EAD37070BD22
:1016C00094F0000F0FD101F00046400041EB010102
:1016D00011F4801F08BF013CF7D041EA060195F0E4
:1016E000000F18BF704703F00046520043EB03039E
:1016F00013F4801F08BF013DF7D043EA060370478B
:1017000094EA0C0F0CEA135518BF95EA0C0F0CD095
:1017100050EA410618BF52EA4306D1D181EA0301DB
:1017200001F000414FF0000070BD50EA410606BFD5
:101730001046194652EA430619D094EA0C0F02D11A
:1017400050EA013613D195EA0C0F05D152EA03365F
:101750001CBF104619460AD181EA030101F000417D
:1017600041F0FE4141F470014FF0000070BD41F0C6
:10177000FE4141F4780170BD70B54FF0FF0C4CF4A0
:10178000E06C1CEA11541DBF1CEA135594EA0C0FBF
:1017900095EA0C0F00F0A7F8A4EB050481EA030E0C
:1017A00052EA03354FEA013100F088804FEA0333F3
:1017B0004FF0805545EA131343EA12634FEA0222C1
:1017C00045EA111545EA10654FEA00260EF0004182
:1017D0009D4208BF964244F1FD0404F5407402D2D4
:1017E0005B084FEA3202B61A65EB03055B084FEA65
:1017F00032024FF480104FF4002CB6EB020E75EB62
:10180000030E22BFB61A754640EA0C005B084FEA89
:101810003202B6EB020E75EB030E22BFB61A754606
:1018200040EA5C005B084FEA3202B6EB020E75EB51
:10183000030E22BFB61A754640EA9C005B084FEAC9
:101840003202B6EB020E75EB030E22BFB61A7546D6
:1018500040EADC0055EA060E18D04FEA051545EAC5
:1018600016754FEA06164FEAC30343EA52734FEA6E
:10187000C2025FEA1C1CC0D111F4801F0BD141EAE7
:1018800000014FF000004FF0004CB6E711F4801F4C
:1018900004BF01430020B4F1FD0C88BFBCF5E06F2C
:1018A0003FF6AFAEB5EB030C04BFB6EB020C5FEA3C
:1018B000500C50F1000041EB045170BD0EF0004E91
:1018C0004EEA113114EB5C04C2BFD4EB0C0541EAC3
:1018D000045170BD41F480114FF0000E013C90E6C0
:1018E00045EA060E8DE60CEA135594EA0C0F08BF84
:1018F00095EA0C0F3FF43BAF94EA0C0F0AD150EA83
:1019000001347FF434AF95EA0C0F7FF425AF104615
:1019100019462CE795EA0C0F06D152EA03353FF43D
:10192000FDAE1046194622E750EA410618BF52EABA
:1019300043067FF4C5AE50EA41047FF40DAF52EA8E
:1019400043057FF4EBAE12E74FF0FF3C06E000BF2B
:101950004FF0010C02E000BF4FF0010C4DF804CD38
:101960004FEA410C7FEA6C5C4FEA430C18BF7FEAF8
:101970006C5C1BD001B050EA410C0CBF52EA430C26
:1019800091EA030F02BF90EA020F0020704710F1A6
:10199000000F91EA030F58BF994208BF90422CBF35
:1019A000D8176FEAE37040F0010070474FEA410C2E
:1019B0007FEA6C5C02D150EA013C07D14FEA430C4C
:1019C0007FEA6C5CD6D152EA033CD3D05DF8040BBD
:1019D000704700BF8446104662468C4619466346EF
:1019E00000E000BF01B5FFF7B7FF002848BF10F1C6
:1019F000000F01BD4DF808EDFFF7F4FF0CBF01200B
:101A000000205DF808FB00BF4DF808EDFFF7EAFF86
:101A100034BF012000205DF808FB00BF4DF808ED41
:101A2000FFF7E0FF94BF012000205DF808FB00BF36
:101A30004DF808EDFFF7CEFF94BF012000205DF8C0
:101A400008FB00BF4DF808EDFFF7C4FF34BF0120CD
:101A500000205DF808FB00BF4FEA410C7FEA6C5C98
:101A600002D150EA013C0AD14FEA430C7FEA6C5C98
:101A700002D152EA033C02D14FF0000070474FF010
:101A8000010070474FEA410212F5001215D211D53C
:101A90006FF47873B3EB625212D94FEAC12343F06B
:101AA000004343EA505311F0004F23FA02F018BFED
:101AB000404270474FF00000704750EA013005D1B6
:101AC00011F0004008BF6FF0004070474FF0000079
:101AD000704700BF0EB400B582B003AB816853F805
:101AE000042B019300F01AF802B05DF804EB03B088
:101AF000704700BF0FB400B5074983B004AB086856
:101B000053F8042B8168019300F008F803B05DF8E6
:101B100004EB04B0704700BF040000202DE9F04F33
:101B2000DBB0164608911C4683460E9303F09EFCDC
:101B3000036817931846FFF7A3F9082216900021AF
:101B40002AA802F033FFBBF1000F04D0DBF83430D9
:101B5000002B01F0CD81089B5A6EB3F90C30D707EA
:101B600040F1BF859D0400F17387089943F4005349
:101B700022F400528B814A661BB21D0740F18B850F
:101B8000089A1269002A00F0868503F01A020A2AD0
:101B900000F0908500239E46CDE92F33CDE91AEE63
:101BA00031AB1A4600242E930023CDE91234CDF830
:101BB00060E0CDF864E0CDF824E01446CDF844E0D0
:101BC00037463D46864BD3F8CC6103F039FC2AAA50
:101BD0000346009226A92A465846B047002800F03E
:101BE000CE83C0F2C483269A252A034601D01D4421
:101BF000E8E7B5EB0708064640F0C58300234FF041
:101C0000FF328DF88F309A460A9301352B78079270
:101C100001359946A9F120035A2B5CD8DFE813F06F
:101C20004D025B005B0049025B005B005B002C0225
:101C30005B005B00A401B3015B00AF010F025B001E
:101C40000B02D100D100D100D100D100D100D100D0
:101C5000D100D1005B005B005B005B005B005B00C0
:101C60005B00E2005B003E01BF02E200E200E20036
:101C70005B005B005B005B0007025B005B00B80180
:101C80005B005B005B006E015B0016035B005B00AA
:101C900012085B005B005B005B005B005B005B00AD
:101CA0005B00E2005B003E012901E200E200E2008D
:101CB000B502290125015B00AB025B0071025E02E7
:101CC000800225015B006E012301DF025B005B00E7
:101CD00084085B002301B9F1000F00F06683002344
:101CE000CDE90F3301228DF804918DF88F300B93DD
:101CF0000C920793149341AF0692309E1AF084031E
:101D0000314600F0ED809DF88F2002B32F984FF000
:101D10000008013001220136626007280DF18F02B0
:101D2000CDE92F06226000F3ED840834B8F1000FEE
:101D30000DD02F98013024AA0236226007284FF0D8
:101D40000202CDE92F06626000F3EA840834802B9A
:101D500000F08C83079B0C9AA3EB0208B8F1000FEC
:101D600000F3CC831AF4807F40F029830C9B6360DE
:101D70001E442F9B27600133072B30962F9300F3CF
:101D8000278408341AF0040F05D00A9B069A9F1A7C
:101D9000002F00F3D384DDE9093206998A42ACBFF3
:101DA0009B185B180993002E40F0E88300232F93C3
:101DB0000B9B1BB10B99584604F0A6FD31AC2F4686
:101DC000FFE6A9F13003002215F8019B02EB820225
:101DD00003EB4202A9F13003092BF5D90A9219E766
:101DE000140200200E9B073323F00701F1E80223C1
:101DF000CDE91223139B1E9223F000431F930E91F3
:101E0000B34BDDE91E014FF0FF32FFF725FE00283E
:101E100040F0BE86DDE91E01AD4B4FF0FF32FFF70B
:101E2000FDFD0646002840F0B386DDE912010022E0
:101E300000232AF0800AFFF7E7FD002841F05A84CA
:101E40009DF88F30B9F1470FCCBFA24FA24F002BA6
:101E500041F074860322CDE90F330B930C92079364
:101E60001493069249E72B78D2E62B784AF0200AA1
:101E7000CEE61AF0200F40F02D860E9A1AF0100FC1
:101E800052F8046B41F0B3871AF0400F0E9201F044
:101E90001C8146F3C038434636B290E10E9BB9F13F
:101EA000430F03F1040600F082871AF0100F40F090
:101EB0007E870E9B1B688DF80431012306930C93DB
:101EC00041AF00230E96309E8DF88F30CDE90F3351
:101ED0000B93079314931AF0840331467FF413AFE6
:101EE0000A9A0698A2EB0008B8F1000F00F32B85C0
:101EF0009DF88F20002A3FF42DAF07E7DDF83880EA
:101F000058F8047B00238DF88F30002F00F03E87B7
:101F1000B9F1530F01F007801AF010030F9341F04D
:101F20000280079B002BC1F23F821A460F99384668
:101F3000FEF7A6FE9DF88F300B90002801F0D785A4
:101F40000B9AD21B0C9222EAE272069213B113464C
:101F5000013306930F9BCDF83880079314931093A9
:101F60000B934FF07309C8E60E9B53F8042B0A92AB
:101F7000002A80F276850A9A0E9352420A922B78B2
:101F80004AF0040A44E62B238DF88F302B783FE685
:101F90001AF0200F4AF0100000F09F850E9B0733C7
:101FA00023F007031A46596852F8083B0E920022A4
:101FB0008DF88F20079A002A18DB53EA010220F4DB
:101FC000906A15D1079A9AB910F001031A46069340
:101FD00000F06F8730238DF86731079B0C92CDE9B5
:101FE0000F3314930B930DF2671786E620F4806A83
:101FF0005AAF03F00702DB0843EA4173C9083032E5
:1020000053EA0106384607F8012DF2D11AF0010112
:102010000F9140F06784079A14915AABDB1B9A42E8
:10202000B8BF1A460C93069210910B9165E62B7877
:102030004AF0080AECE52B784AF0800AE8E52946E0
:1020400011F8019BB9F12A0F01F0A386A9F1300321
:10205000092B98BF002201F2998411F8019B02EB31
:10206000820203EB4202A9F13003092BF5D942EABF
:10207000E27307930D46CDE5584603F0F7F9436840
:1020800019931846FEF7FCFE1B900646584603F0CF
:10209000EDF981682B781A91002E3FF4B9AD002933
:1020A0003FF4B6AD0A78002A3FF4B2AD4AF4806A34
:1020B000AEE52B784AF0010AAAE59DF88F202B782F
:1020C000002A7FF4A5AD20228DF88F20A0E500BF67
:1020D000FFFFEF7F30A600082CA600081AF0200FA3
:1020E00040F053850E9A1AF0100152F8043B41F06B
:1020F00078861AF0400000F0DF879BB20E925046BF
:1021000055E70E9A1AF0200F02F1040300F0118532
:10211000126809991160C91751600E932F4650E556
:102120000E9A079F52F8040B002147F630038F42A6
:10213000ADF890308DF88F100346C0F2F7852AF085
:10214000800646F0020A002840F0F285002F01F0D8
:10215000308030238DF867310123069714900E925A
:1021600010900B904FF078090C930F900DF26717B9
:10217000844600F0BCBD2B786C2B03BF6B784AF013
:10218000200A01354AF0100A42E52B78682B03BF7C
:102190006B784AF4007A01354AF0400A38E51AF0C3
:1021A000200F4AF0100300F0D6840E9A073222F076
:1021B00007029A46536852F8086B0E929846002B15
:1021C000C0F2D584079A002A20DB56EA08032AF0D9
:1021D000800A1BD1002A00F09F8730231DE01AF0EF
:1021E000200F00F0828451460E9B073323F0070333
:1021F0001A46D3F8048052F8086B0E9200238DF82B
:102200008F30079B002B80F230848A460A2E78F1AB
:10221000000337D206F13003DBB2079A8DF867313D
:10222000012AB8BF012206929DF88F3001220C923C
:102230000DF26717002B01F0B785069B013306935B
:102240000023CDE90F330B93149356E51AF0200FBA
:102250004AF01001C8D10E9B1A1D0E9B07981B68EF
:102260004FF0000840458DF88F801E46C1F256821F
:1022700021F0800A002B00F04F840A2E78F1000331
:102280000E92C7D30AF48063CDE90B590694DDF8AA
:1022900068904FF0000C5AA91C4626E016EB080384
:1022A000B34843F10003A0FB032020F0030202EB3C
:1022B00090029B1AF31AAE484FF0CC32B646454610
:1022C00002FB03F268F1000800FB0822A3FB006395
:1022D000BEF10A0F13444FEA560675F10005394660
:1022E00046EAC3764FEA53082DD3A14D16EB0803F7
:1022F00043F10003A5FB032020F0030202EB900250
:102300009B1AF31AA3FB053268F100005B0805FB7A
:10231000002243EAC27303EB8303A6EB430330338B
:102320000CF1010C01F8013C4F1E002CB6D099F8BD
:1023300000306345B2D1BCF1FF0FAFD00A2E78F167
:10234000000381F0D5805AAB0799069CCDF86890C0
:10235000DB1B1A469142B8BF1146DDF830900B9D49
:102360000C93CDF844C09DF88F30069162E70822A7
:1023700000212AA802F01AFB01231D4422E4B5EB38
:102380000708064611D02F9A309B01324344072A92
:10239000C4E9007830932F9200F374810834099BCC
:1023A00043440993002E7FF429AC309B002B41F06D
:1023B0000980089B0022B3F90C302F92EFE0B9F1AD
:1023C000650F40F31081DDE9120100220023FFF7C1
:1023D00011FB002800F002822F9B664A2260013325
:1023E00001360122072B30962F93626000F38F8510
:1023F0000834259B119A934280F22E83169B179ADC
:102400001E44C4E900232F9B30960133072B2F93E2
:1024100000F3B0840834119B5F1E002F7FF7B2AC2D
:10242000102F2F9B41F38A845349DDF8209015919A
:1024300032464FF010080E4604E00834103F102FCB
:1024400040F3BB8001331032072BC4E90068CDE9AB
:102450002F32F2DD2EAA4946584601F043FD0028EE
:1024600040F09480DDE92F3231ACE7E70A9B069A11
:10247000A3EB0208B8F1000F7FF76CACB8F1100FB6
:102480002F9A41F3C882DFF8F0C0CDF854C021463E
:10249000304610232E466446089D06E0A8F1100839
:1024A000B8F1100F01F1080118DD01321030072AD0
:1024B000C1E90043CDE92F20F0DD2EAA2946584678
:1024C00001F010FD002861D1A8F11008B8F1100F3B
:1024D000DDE92F2031A94FF01003E6DC35460C462C
:1024E00006460132159B23604644072ACDE92F2674
:1024F000C4F8048000F3328408342BE41E4B2F9A76
:102500001593B8F1100F24DD21461023089C06E036
:10251000A8F11008B8F1100F01F1080118DD01321F
:1025200015481036072AC1E90003CDE92F26EFDD53
:102530002EAA2146584601F0D5FC38BBA8F1100858
:10254000B8F1100FDDE92F2631A94FF01003E6DCBA
:102550000C460132159B23604644072ACDE92F26FD
:10256000C4F8048000F368820834FFF7FBBB00BFA7
:10257000CDCCCCCC6CA60008C8A8000808992EAA1F
:10258000584601F0AFFC00283FF410AC0B9B1BB188
:102590000B99584604F0B8F9089BB3F90C30089A27
:1025A000526ED00702D49A0540F17B845B0600F19D
:1025B000118109985BB0BDE8F08F16460133159A7A
:1025C00022603E44072B6760CDE92F367FF7D9ABF9
:1025D00008992EAA584601F085FC0028D6D1309ED5
:1025E00031ACFFF7CFBB2F9B03F10108119B012BEF
:1025F00006F1010604F1080940F38B810123B8F1CB
:10260000070FCDE92F862760636000F32584169BB2
:10261000179A08F101081E44B8F1070FC9E9002311
:10262000CDE92F8600F30A8409F10809119BDDE941
:1026300012015C1E00220023FFF7DCF9002840F0A5
:10264000CB8108F1010801372644B8F1070FCDE925
:102650002F86C9F80070C9F8044000F3678109F1BA
:102660000809189AC9F8042008F101031644072B39
:1026700028AACDE92F36C9F80020A9DC09F1080401
:10268000FFF780BB08992EAA584601F02BFC0028C2
:1026900082D131AC83E6089D5846294602F070F895
:1026A000002841F03D83B5F90C3003F01A020A2AE4
:1026B0007FF470AA0899B1F90E20002AFFF66AAAE1
:1026C0004A6ED20702D49B0540F1938608992346AF
:1026D0003246584601F0C4FB099009985BB0BDE84A
:1026E000F08F990567D59F047FF53FAA95047FF584
:1026F00044AA089B9B899E056CD4089B986D02F0A8
:1027000059FF67E0089915932EAA584601F0EAFB95
:1027100000287FF43BAF309E159B31ACFFF706BB22
:10272000089915932EAA584601F0DCFB00287FF487
:102730002DAF309E159B31ACFFF709BBBC4A2F9BD8
:102740001592102F22DDAA46DDF820904FF01008D8
:10275000154604E0103F102F04F1080415DD013385
:102760001036072BC4E90058CDE92F36F2DD2EAA2A
:102770004946584601F0B6FB00287FF407AF103FEA
:10278000102FDDE92F3631ACE9DC55460133159ABF
:102790003E44072BC4E90027CDE92F367FF7FBAA7B
:1027A00008992EAA584601F09DFB00287FF4EEAE52
:1027B000309EFFF7F0BA089DA86D02F0F3FEB5F960
:1027C0000C306A6E98047FF5D0A991047FF5D5A9E5
:1027D000D7078ED54FF0FF330993EAE625990029F4
:1027E00040F35381DDF83C90119B9945A8BF994671
:1027F000B9F1000F0ADD2F9B01334E44072BC4E9CA
:10280000007930962F9300F3B8870834DDF83C80C8
:10281000B9F1000FA8BFA8EB0908B8F1000F00F349
:10282000ED830F9B1AF4806F3B4440F0AA86259AF3
:1028300011998A4203DB1AF0010F00F0D084169937
:1028400017980E44C4E900012F99309601310729E9
:102850002F9101F332800834119907EB0108A8EB9E
:1028600003088F1AB845A8BFB846B8F1000F0BDDB2
:1028700023602F9BC4F8048001334644072B309615
:102880002F9301F370800834B8F1000FA8BFA7EBB5
:102890000807002F7FF776AA102F2F9B41F34E8257
:1028A0006449DDF82090159132464FF010080E462D
:1028B00004E00834103F102F7FF77FAE0133103251
:1028C000072BC4E90068CDE92F32F2DD2EAA494674
:1028D000584601F007FB00287FF458AEDDE92F329F
:1028E00031ACE7E7302A00F02C823023023807F8B9
:1028F000013C5AAB00221B1A0B920C930746079916
:1029000014929942B8BF1946CDE90F220691FFF7FC
:10291000F4B91AF0010F7FF471AE0123B8F1070F7B
:10292000CDE92F86276063607FF79BAE08992EAABA
:10293000584601F0D7FA00287FF428AEDDE92F864B
:102940000DF1C4098DE62F9AB8F1100F41F3028002
:10295000DFF8DCC0CDF854C0CDE920532046102666
:10296000089C654606E0A8F11008B8F1100F00F1C8
:10297000080017DD01321031072AC0E90056CDE901
:102980002F21F0DD2EAA2146584601F0ABFA00288F
:102990007FF4FCADA8F11008B8F1100FDDE92F218C
:1029A00031A8E7DCDDE92053044615982060501C6F
:1029B00008EB01060728CDE92F06C4F8048000F3D0
:1029C00081829DF88F200834002A5AD1002B3FF4D1
:1029D000C1A91346FFF7AEB9119B012B7FF741AE9A
:1029E000112B41F3EB8113491591324643461027D1
:1029F000DDF820800E4605E009F10809103C102C96
:102A000040F3498301331032072BC9E90067CDE950
:102A10002F32F1DD2EAA4146584601F063FA002814
:102A20007FF4B4ADDDE92F320DF1C409E6E700BF54
:102A3000D8A80008C8A8000808992EAA584601F08E
:102A400051FA00287FF4A2AD309E31ACFFF78AB96D
:102A500090047FF592A8BDE61AF0010F3FF492A909
:102A6000CCE40E932B78FFF7D3B856EA080321F095
:102A7000800A7FF4CBAB079B002B51D00026FFF7D9
:102A8000C9BB98460023FFF744B92F9BB04A226088
:102A9000013301360122072B30962F93626000F339
:102AA00051860834002940F0D782119A0AF00103B8
:102AB00013433FF467A9169B179A1E44C4E90023E9
:102AC0002F9B30960133072B2F9300F3858404F15D
:102AD0000802D2E25346FFF768BB0E9B1A1D0E9BFD
:102AE0000E921B680021FFF762BA0E9A1AF01008C6
:102AF00052F8043B41F08F811AF0400100F0F68259
:102B00009EB2079B8DF88F80002BFFF6B6AB2AF0A4
:102B1000800A002E7FF4B1AB079B0E92002BADD143
:102B2000CDE90F330C93149306930B935AAFFFF731
:102B3000E4B81AF0100F40F051821AF0400F40F044
:102B400058831AF4007F00F049820E9A099912689E
:102B50001170FFF7E2BA0E9A04320E990E920E68C7
:102B60004FEAE6789A464346002BBFF62BAB2D235F
:102B70008DF88F30079B764268EB4808002BFFF6F4
:102B800045AB2AF0800AFFF741BB5046FFF706BA73
:102B9000DDE9120102460B46FEF75EFF06460028FD
:102BA00040F0B587B9F1610F00F0F385B9F1410F3D
:102BB00000F02F83079B013300F09287B9F1670F74
:102BC000139B4AF4807800F04F87B9F1470F00F06B
:102BD0004B870B90DDE91212002AC0F23D870023DB
:102BE0001593DDE91223CDE91C23A9F14103252B1F
:102BF00000F29982DFE813F0050897029702970226
:102C000002045204970297029702970297029702D2
:102C100097029702970297029702970297029702EC
:102C200097029702970297029702970297029702DC
:102C30009702970297029702050897029702970258
:102C400002045204434E1AF0200100F0E8800E9B6B
:102C5000073323F007031A46596852F8083B0E92CF
:102C60001AF0010200F0BA8053EA010200F0458137
:102C700030228DF8902000228DF88F20079A8DF851
:102C80009190002AC0F2F6802AF4906242F0020A83
:102C900003F00F020AF00200B25C8DF867211B09F5
:102CA00043EA01730A0953EA11110DF267170BD0B9
:102CB00003F00F011B09715C07F8011D43EA027361
:102CC000120953EA0201F3D1079A5AAB4FF0000CF4
:102CD000DB1B9A42CDE90FCCB8BF1A460C93069283
:102CE000CDF82CC0CDF850C000283FF406A8069BB4
:102CF000DDE92F06023306931AF0840331460246BB
:102D000008D1DDF828E0DDF81880AEEB0808B8F14E
:102D1000000F07DCBCF1000F3FF40CA84FF00208D5
:102D2000FEF7F7BF02230FE60B4E8CE74AF0020ACC
:102D30000E92094E03F00F020220B25C4FF07809A8
:102D4000ABE75AAB0022DB1B0B920C93D7E500BF1D
:102D50006CA6000850A600083CA6000808992EAAF8
:102D6000584601F0BFF800287FF410AC309E31AC1B
:102D7000FEF7F0BF08992EAA584601F0B3F80028D4
:102D80007FF404AC309E31ACFFF745BB079BCDF818
:102D90003880062B3A4628BF0623CDE90B730797E8
:102DA000CDE90F22AA4F06931492FEF7A6BF082280
:102DB00000212CA801F0FAFD0E9B41AF1A6839469C
:102DC0002CAB584605F0E4FC034601330C905BD075
:102DD0000C9B23EAE3730693FFF773B88DF88F20FB
:102DE000079A002A48DB53EA01022AF4906A7FF42A
:102DF0004FAF079A002A00F0F780012A33788DF848
:102E00006731B8BF0122002306920122CDE90F33BA
:102E10000B930C9214930DF26717FEF76EBF0E9A88
:102E200052F8043B0E921AF010027FF419AF1AF018
:102E3000400000F055819BB2114611E708992EAA77
:102E4000584601F04FF800287FF4A0ABDDE92F864B
:102E50000DF1C409FFF7EABB08992EAA584601F004
:102E600041F800287FF492ABDDE92F860DF1C4090B
:102E7000FFF7CDBB4AF0020A03F00F020AF002008E
:102E8000B25C2AF4806A08E70898B0F90C30426E08
:102E900043F04001D70781813FF59CAC99053FF590
:102EA00099AC089CA06D02F085FBB4F90C30FFF7DB
:102EB0007DBB079B0C93CDE90F3314930B935AAF53
:102EC000FEF71BBF089915932EAA584601F00AF881
:102ED00000287FF45BAB9DF88F20309E159B002A65
:102EE00000F08480984631AC03462F98FEF711BF5E
:102EF000584601F01FFAFEF72EBE079B00208342C2
:102F00008DF88F00C0F2D7822AF4906A71E7089991
:102F10002EAA584600F0E6FF00287FF437AB309E1B
:102F200031ACFFF766BA082200212CA8279701F0E0
:102F30003DFD079B002BC0F2C682002606940B9530
:102F400034461D460EE041A9584605F021FC431CBD
:102F5000204400F0BA85A84209DC06F1040600F01E
:102F60002A860446279A92592CAB002AEBD10C945E
:102F70000B9D069C0C9B002B00F0D483632B40F32D
:102F80003A85591C584603F0FFFD0746002800F01B
:102F90003B870B90082200212CA801F007FD0C9E16
:102FA0002CAB009327AA33463946584605F042FC1D
:102FB000864240F023870C9A0023BB5422EAE27237
:102FC00006929DF88F20002A40F0E584CDE90F227B
:102FD0000792CDF838801492FEF78FBE0E9A0999A9
:102FE00012681160FFF799B8079B99E5002B00F074
:102FF000F3802F98134631ACFEF79CBEB8F1100F4A
:103000002F9B40F3C3861348159022463146089CF7
:103010004FF01009064606E00832A8F11008B8F192
:10302000100F40F3578301331031072BC2E90069B9
:10303000CDE92F31F0DD2EAA2146584600F052FF8F
:1030400000287FF4A3AADDE92F3131AAE5E700BF0C
:1030500064A60008C8A80008169B179A1E44C4E975
:1030600000232F9B30960133072B2F9300F3B4815D
:1030700004F108020029C0F2998411991760013304
:103080000E44072BCDE92F3651603FF7A1AA02F17C
:103090000804FEF777BE1646984608F10108159B0E
:1030A000C9F800302644B8F1070FCDE92F86C9F8DA
:1030B00004407FF7D4AA39E41AF400711CBF01461A
:1030C000DBB20E925046FEF772BF1AF4007F16BFB5
:1030D00046F3C0184FEAE67876B24346FFF76FB87A
:1030E0001AF400711CBFDBB20146B9E51AF400788E
:1030F00040F0858007998DF88F8000291E46FFF6E5
:10310000BCA82AF0800A002B7FF4B7A80B460E92C9
:1031100000297FF4B3AC03E59DF88F3006920C9242
:103120005AAFFFF787B8079B01932CAB049327ABEB
:10313000039325AB0293022300935846DDE91C2339
:1031400002F066FB07461AF0010F40F00784259A4B
:103150002C9B0F92DB1BD11C1193C0F2BD830799EE
:103160009142C0F28B83934200F34A840F9B0C93ED
:103170001AF4806F03D00F9B002B00F3E5840C9BA7
:1031800023EAE373C24606934FF0670900231493C2
:103190001093159B0AF00200002B00F083814FF082
:1031A0002D0C8DF88FC0069B0133069300230793E7
:1031B0009AE5DDF81CC00E92CDF850C0CDF840C0A5
:1031C000CDF830C0CDF83CC0CDF818C0CDF82CC03B
:1031D0004FF078095AAF8AE531ACFEF7BBBD07EB7B
:1031E0000108A8EB03088F1AB845A8BFB846FFF737
:1031F0004BBB0E9A099912681180FEF78EBFDEB2A2
:10320000079B8DF88F10002B8846BFF680ACFFF728
:1032100034B845F63003ADF89030079B632B4AF085
:10322000020A00F30B84DDE91212002A1346C0F2F1
:10323000728525AADDE9120102F01CFA00224FF086
:103240007F53FEF76FF902460B46CDE90C230022AF
:103250000023FEF7CFFB08B1012325930023A14AE9
:10326000159306920B9341AF079B0F95591ECDE91D
:10327000109A0794069EDDE90C45B8468A4609E097
:10328000002200230AF1FF39FEF7B4FB002840F0CA
:10329000D584CA46944B002220462946FEF742F9BF
:1032A0000D460446FEF7EEFB8146FEF7D1F80246D6
:1032B0000B4620462946FDF77DFF16F80930BAF186
:1032C000FF3F4246044608F8013B0D46D8D116465A
:1032D000864BDDF844A00022CDE90C45079C0F9DEC
:1032E000CDF81C90DDF84090FEF7ACFB48B9DDE965
:1032F0000C017E4B0022FEF77DFBE0B1079BD80757
:1033000019D5069B2C96D97B18F8012C914243467F
:1033100009D1302003F8010C2C9B5A1E2C9213F873
:10332000012C8A42F6D0392A0BBF069A0132927AD2
:10333000D2B203F8012C259AA8EB07031193B9F137
:10334000610F02F1FF33259300F0AC8450214FF060
:103350004109002B8DF8A010C0F299842B22092B73
:103360008DF8A12000F3C8820DF1A202303302F8DB
:10337000013B28ABD31A1893119B189A012B1A44BE
:103380000C9240F39D830C9B169A13440C930C9A59
:103390002AF4806343F4807A22EAE2720023CDE9C2
:1033A0000F3314930692F4E63846FDF769FD9DF855
:1033B0008F300C9020EAE0720692002B3EF4CAADEA
:1033C000FEF7C5BD08992EAA584600F08BFD0028CF
:1033D0003EF4EFAFFFF7E0B808992EAA584600F088
:1033E00081FD00287FF4D2A8DDE92F36259931AA86
:1033F00040E6886D02F0DEF8FFF768B9079B0133FD
:103400001193022300932CAB049327AB119E0393DB
:1034100025AB019602935846DDE91C2302F0F8F92A
:1034200029F02003462B07460693064400F0E68168
:10343000DDE91C0100220023FEF7DCFA002840F041
:10344000D4832C9BB34280F0CE8345220692302158
:103450005A1C2C9219702C9BB342F9D3DB1B11938D
:10346000259B0F93069B472B00F00182069B462B62
:1034700000F0DC810F9B8DF8A090013B002B259381
:10348000C0F231822B22092B8DF8A12000F3348267
:1034900030228DF8A2200DF1A30267E7079B11935C
:1034A0000323AFE79DF88FC0BCF1000F7FF47BAE24
:1034B000159B079318E433788DF867312AF4806AF6
:1034C0000DF2671700E42CAB00930023194627AADE
:1034D000584605F0AFF9034601330C9000F0F58231
:1034E000279747E550A60008000030400000E03F65
:1034F0001B9A1999BF1A384601F0A6FA99F80130BB
:103500000BB109F10109B94A16EB080343F10003B5
:10351000A2FB030525F0030000EB95001B1AF31A2C
:103520004FF0CC3168F1000803FB01F102FB0811F8
:10353000A3FB023001445B0843EAC1764FEA51081D
:1035400016EB080343F10003A2FB031020F0030174
:1035500001EB90015B1AF31AA3FB023168F1000042
:103560005B0802FB001243EAC27303EB8303A6EB82
:103570004303303307F8013C4FF0010C013FFEF7E5
:10358000D6BE119ADDF85080CDF854A0BA18079233
:1035900022461C46109BDDF86890DDF820A00F95B0
:1035A000002B314614971B9E2EDDB8F1000F7EDDF7
:1035B00008F1FF382F98199B013031440728C2E9E0
:1035C000003630912F9067DC0832079B99F8000095
:1035D0001F1B8742A8BF0746002F0BDD2F98013025
:1035E00039440728C2E9004730912F9065DC99F8EB
:1035F00000000832002FACBFC51B0546002D16DCAD
:103600000444109B002BD0DCB8F1000FD0DC234623
:10361000149F0F9DDDF854A0CDF868901446119AC0
:10362000BA1893420E4628BF1346FFF700B9102D73
:103630002F986F4B23DD0C9410272C461D4604E079
:10364000103C102C02F1080216DD0130684B1031DD
:103650000728C2E90037CDE92F01F1DD2EAA514636
:10366000584600F03FFC00287EF490AF103C102C30
:10367000DDE92F0131AAE8DC2B4625460C9C1360BE
:10368000013029440728CDE92F01556067DC99F8FE
:10369000000008320444B4E72EAA5146584600F010
:1036A00021FC00287EF472AF309931AA8DE7109B7F
:1036B000013B09F1FF3910937CE72EAA5146584689
:1036C00000F010FC00287EF461AF99F800003099FA
:1036D00031AA8FE714460E460133159A22604644FC
:1036E000072BCDE92F36C4F8048000F3DD810834C0
:1036F000FFF797B82D23B9F1470F8DF88F300B9650
:103700003346079640F33E8103223A4F0C92CDE9AF
:103710000F33149304230693FEF7EFBA0E928A46F2
:10372000FEF774BD9DF88F30CDF83880003B18BF90
:10373000012306930C9B0793CDE90F3314930B934E
:10374000FEF7DBBA08992EAA584600F0CBFB0028FA
:103750007EF41CAF2599309E31ACFFF7A3B92EAA99
:103760005146584600F0BEFB00287EF40FAF99F892
:103770000000309931AA044443E708992EAA58461C
:1037800000F0B0FB00287EF401AF309E31ACFFF7B3
:103790003DB847F63003ADF89030079B632B4AF0F5
:1037A000020A00F34B81DDE91212002AC0F22082E6
:1037B00025AADDE9120101F05DFF00224FF07F53E1
:1037C000FDF7B0FE02460B46CDE90C230023002294
:1037D000FEF710F90346002800F0528201231596E7
:1037E000259341AF0B96044B06933DE5CDCCCCCC55
:1037F000C8A8000830A600083CA600083B78302B7B
:1038000000F0CC81259B1E44DDE91C010022002331
:10381000FEF7F0F820BB2C9B9E423FF618AEDB1B58
:103820001193259B0F93069B472B20D00F99079A46
:103830000AF00103002943EA020340F39182002BBE
:1038400040F0CA810F9B0C934FF066091AF4806F09
:1038500040F07C810C9B23EAE373C246069395E417
:10386000259B0F93F31B1193069B472BDED10F9BD8
:10387000033331DB079B0F9A934210DA0F9B013B16
:10388000A9F10209002B8DF8A0902593BFF6FAAD9F
:103890000F9B2D22C3F101038DF8A120F8E5119BA8
:1038A0000F9A934200F3AC801AF0010F0F9B00F0C7
:1038B0003482169A13440C935AE4089907932EAA5B
:1038C000584600F00FFB00287EF460AE259A309E2B
:1038D000079B31ACFEF7C0BF0F9BA9F10209013B6A
:1038E0008DF8A09025930F9BC3F101032D22092B86
:1038F0008DF8A1207FF7CCAD0DF1B706DFF8C4C27B
:1039000032461046ACFB0312D20802EB8201A3EB55
:103910004101303100F8011C19466329134600F1BA
:10392000FF32EEDC303302F8013C831EB34280F0FC
:1039300049820DF1A10213F8011B02F8011FB342E5
:10394000F9D103F5B4736B44C43B1B1A28AA9B1A24
:10395000189311E59C481590FFF727B8079BFE18B0
:103960004723069350E708992EAA584600F0BAFA62
:1039700000287EF40BAE259F119B309EDF1B31ACDF
:10398000FEF782BF0322914F0C92C0E600230D4642
:103990000793FEF73FB9069A07930132CDE90F333B
:1039A0000692CDF838801493FEF7A7B9C1F100084C
:1039B000103180F21982864815903146102406464F
:1039C00005E00832A8F11008B8F1100F27DD013327
:1039D0001031072BC2E90064CDE92F31F1DD0899E0
:1039E0002EAA584600F07EFA00287EF4CFADDDE91D
:1039F0002F3131AAE6E700230B9341AFFFF7CABA94
:103A0000119B169A9A180F9B0C92002B40F32C8155
:103A10004FF067091AE76E4B1593FEF762BD0E462D
:103A20000133159911604644072BCDE92F36C2F8B2
:103A3000048000F34D810832FFF71FBB079B5846F7
:103A4000591C03F0A1F8074600283FF41DAA0B906B
:103A50004AF48078FFF7BEB802F100431D932D238E
:103A60001C911593FFF7C1B8079A002A00F03D8119
:103A7000002BC0F26C81DDE91223CDE91C231596E1
:103A8000079B01932CAB049327AB039325AB0293C5
:103A9000022300935846DDE91C2301F0B9FE002300
:103AA00007460B93FFF74FBB08992EAA584600F024
:103AB00019FA00287EF46AAD309E31ACFEF7B1BE33
:103AC0001AF0010F3FF463AC5DE4089BB3F90C30CE
:103AD00000220B9243F04003089A9381FEF756BDF3
:103AE00006230B9007934AF48078FFF773B8CDF85C
:103AF0003880002B00F00481079B0C935A1C06921F
:103B00000790149010904FF07309FEF7F6B8139BCE
:103B100013F000432AF0800A0F9300F0C6802D2393
:103B20008DF88F30B9F1470F4FF000030B930793D7
:103B300040F340810322274F0C92E8E50023032243
:103B4000CDE90B320793E2E54FF067091A990B783C
:103B5000FF2B00F04F8100260F9A304603E0013022
:103B60000131FF2B08D0934206DAD21A4B78002B92
:103B7000F5D10B780136F4E7CDE90F201A911496B0
:103B8000109A149B1B9913440C9A01FB03230C936A
:103B900023EAE373C2460693FFF7FBBADDE91C0193
:103BA00000220023FDF726FF002800F0CB80259B94
:103BB0000F931E4456E6079B069C0B9D0C93FFF744
:103BC000D9B900BFCDCCCCCCD8A800082CA6000811
:103BD000C8A8000838A60008169B0A44D3180C93FE
:103BE0004FF0660932E6DB1B1193259B0F9341E4EE
:103BF0001C91134603F100431D932D230B9641AFF7
:103C0000159325AADDE91C0101F034FD00224FF0D7
:103C10007F53FDF787FC02460B46CDE90C230022BB
:103C20000023FDF7E7FE08B101232593B9F1610FE9
:103C30003FF4D9AD7F4B0693FFF716BB51460029E1
:103C4000DDE9109A079C0F9DFFF675AB4A1C4244B4
:103C50004346302003F8010B9342FBD108EB0103EC
:103C600003F10108FFF767BBC3F101031A4422EA1D
:103C7000E273C2460C9206934FF06709FFF786BACB
:103C80006D4A159306920B9341AFFFF7EDBAC2F15F
:103C90000103092B4FF02D028DF8A1203FF72CAE28
:103CA000FFF762BB7021FFF754BB9DF88F30B9F16D
:103CB000470FCCBF614F624F002B40F0AF80032213
:103CC00007930C92149310930B930692FEF715B87A
:103CD00008992EAA584600F005F900287EF456AC43
:103CE000DDE92F3631AAFFF7C8B9002B6EDB079B41
:103CF000159301230793DDE91223CDE91C23BFE6C9
:103D0000079B0C9306930B9B1493109307934FF010
:103D10007309FDF7F2BF1C916CE70C93FFF728BA0B
:103D2000089A536ED8073EF555AD938999053EF52F
:103D300051AD906D01F03EFCFEF74CBD414A15922D
:103D4000FEF73CBC119BC3F1010325935BE5DDE964
:103D5000122303F100431D932D231C9215938FE62C
:103D6000C24633B9012306934FF066090C93FFF75F
:103D70000DBA169B03F10109079B4B440C9323EAF0
:103D8000E37306934FF06609FFF700BA2D4A1592C8
:103D9000A2E40E9A6B780D4652F8041B0E9241EA8B
:103DA000E1710791FDF734BFCDE90F330B93149305
:103DB000FDF7A3BF0322224F0C92A8E4214B1593D9
:103DC000FFF76BB902231893FFF7D6BADDE9122388
:103DD00003F100431D932D23159301231C92079398
:103DE0004EE65046FEF77BBE1649159118E653463F
:103DF000FEF7B3BE002314931093C1E6089BB3F9FA
:103E00000C3043F0400367E6089B0B90B3F90C308D
:103E100043F0400360E65146FEF71FBA00230793C4
:103E2000149310930B9303230C9304230693FDF731
:103E300064BF00BF50A600083CA6000838A60008D2
:103E400034A60008C8A8000810B4044C84461346E1
:103E5000206810BC0A466146FDF760BE04000020E1
:103E60002DE9F04198468B89ADF58D6D23F0020365
:103E7000ADF80C301AAB009304934FF480630293B7
:103E800005934B6E1993CB89ADF80E30CB69079330
:103E90004B6A099316460023074616A80D4606935B
:103EA00001F078FB3246434669463846FDF736FE58
:103EB000061E6C4607DB6946384600F0B7F8002856
:103EC00018BF4FF0FF36A3895B0603D5AB8943F0DB
:103ED0004003AB81A06D01F061FB30460DF58D6DA7
:103EE000BDE8F081936810B514461BB9184600234D
:103EF000636010BD00F06CFA0023A36000236360D0
:103F000010BD00BFB1F90C20F8B515070C460746E7
:103F10004AD4496842F400630029A38160DDA66A9F
:103F2000002E3FD0002112F480523D68396063D1E9
:103F3000E16901233846B0470246501C6AD0B4F903
:103F40000C30A66A590705D56368D21A236B0BB1EA
:103F5000E36BD21A0023E1693846B047421CB4F93A
:103F60000C304BD139681D2940D82F4ACA40D6079A
:103F70003CD52269226023F40062A281D9044FF06B
:103F80000002626002D53B68002B41D0216B3D608E
:103F900041B104F14003994202D0384602F0B4FC2A
:103FA000002323630020F8BD0E69002EFAD00D68AF
:103FB0000E6092070CBF4B690023AD1B8B600CE0B9
:103FC000D4F824C0E1692B4632463846E047B0F1C8
:103FD000000CA5EB0C05664406DD002DF0DCE1E7E6
:103FE000E16B00299BDCDDE7B4F90C3043F04003C2
:103FF000A3814FF0FF30F8BD226DA3E72269226054
:1040000023F40062A281DB044FF000026260BDD5A0
:104010002065BBE73B68002B91D01D2B01D0162BF0
:10402000E2D13D60BEE700BF0100402038B50C463C
:10403000054608B1436B03B3B4F90C0088B1636E55
:10404000DB0701D481050FD528462146FFF75AFF2B
:10405000636EDA07054602D4A3899B0508D5284676
:1040600038BD0546284638BDA06D01F09BFAEBE748
:10407000A06D01F09FFA284638BD00F05BF9DBE740
:1040800050B338B5174B1D6804460DB16B6BBBB10F
:10409000B4F90C0088B1636EDB0701D4810513D538
:1040A00028462146FFF72EFF636EDA07054602D445
:1040B000A3899B050CD5284638BD0546284638BD42
:1040C000284600F037F9E3E7A06D01F06BFAE7E767
:1040D000A06D01F06FFAEEE7034A0449044800F0CE
:1040E000E3BA00BF04000020080200202D400008B1
:1040F00008000020024A0349034800F0D5BA00BF77
:104100000802002081880008080000200C4B41684C
:10411000994210B5044601D004F0B2FBA168094BE6
:10412000994202D0204604F0ABFBE168064B99426D
:1041300004D02046BDE8104004F0A2BB10BD00BF73
:104140000809002070090020D809002008B54B6E2E
:10415000DA0702D48B899B0501D5002008BD886D44
:1041600001F020FA002008BD08B54B6EDA0702D432
:104170008B899B0501D5002008BD886D01F01AFAD6
:10418000002008BD2DE9F843314A324C3249DFF8AE
:10419000CC90DFF8CC80334F1160002504232946F2
:1041A000082204F15C00C4E903352F4EA560C4E980
:1041B0000055C4E90555656600F0F8FB04F15800A8
:1041C000C4E90749C4E90987E66201F0E3F9294631
:1041D000264B6367082204F1C400C4E91A55C4E9F8
:1041E0001E552567C4F8CC50C4F8805000F0DEFBA3
:1041F00004F1680304F1C000C4F88430C4E92298D3
:10420000C4E9247601F0C6F9194BC4F8DC3029461C
:1042100004F596700822C4E93455C4E93855C4F849
:10422000D850C4F83451C4F8E85000F0BFFB04F192
:10423000D003C4E93D87C4F8F09004F59470C4F845
:10424000FC60C4F8EC30BDE8F84301F0A3B900BF4E
:10425000400A002008090020F5400008ED4600084B
:104260001547000855470008794700080900010074
:1042700012000200F8B506462A4801F093F92A4BCD
:104280001B68002B43D0294FD7E90134013B04D5EB
:1042900024E05A1C04F1680420D0B4F90C50013B0E
:1042A000002DF6D1224BE36004F15800656601F061
:1042B00071F91C4801F07EF9C4E90155C4E90455BF
:1042C00008222560A561294604F15C0000F06EFB20
:1042D000C4E90C55C4E911552046F8BD3D680DB13F
:1042E0002F46D1E74FF4D671304602F04DFC04461C
:1042F00080B10423C0E900530C302946A0604FF47C
:10430000D072254600F052FB3C602F46BCE7FFF719
:1043100039FFB8E703483C6001F04CF90C233360E7
:10432000DAE700BF280C0020400A00200802002025
:104330000100FFFF10B504460A4801F033F9636B32
:1043400023B9094B094A1B68626323B1BDE81040D9
:10435000044801F02FB9FFF715FFBDE810400148F0
:1043600001F028B9280C0020400A00200D41000867
:10437000014801F017B900BF280C0020014801F0E6
:1043800019B900BF280C002008B5054801F00AF94A
:10439000BDE80840034A0449002000F085B900BF89
:1043A000280C0020080200204D41000808B5054AED
:1043B0000549002000F078F9BDE80840034801F005
:1043C000F9B800BF0802002069410008280C00204D
:1043D0009368002B00F0AA802DE9F04FB1F90CC0D2
:1043E0001CF0080F83B0174680460C4623D00B699B
:1043F0000BB31CF002093E6829D04FF0000ADFF829
:10440000A4B255465D452B46524628BF5B46404602
:10441000002D7AD0E169D4F824C0E04700287DDD82
:10442000BB681B1A82442D1ABB60002BEAD1002006
:1044300003B0BDE8F08F2146404600F0A1F9002806
:1044400071D1B4F90CC03E681CF00209D5D11CF042
:10445000010A6DD123685546002D52D01CF4007F0F
:10446000D4F80890184600F0A580A945CB4600F284
:10447000DF801CF4906F32D021696269A3EB0109DF
:1044800002EB420202EBD27209F1010352102B44FB
:10449000934292BF93469B461A461CF4806F00F0ED
:1044A000E5801146404602F06FFB002800F0F480E2
:1044B0004A4621690190FCF733FCA289019B22F452
:1044C000906242F08002A28103EB09002361ABEB12
:1044D0000903C4F814B0A3602060A946AB46514656
:1044E0005A4600F0CBF9A2682368A2EB0902A26049
:1044F000B9685B44491B2360B960002997D0B4F9BF
:104500000CC0D6E900A50836A6E7D6E900A508360E
:1045100078E721464046FFF789FD60B3B4F90C30D7
:1045200043F04003A3814FF0FF3081E70020704744
:104530004D46BA4648464F465DB380B34A46D4E935
:1045400004132068AA4228BF2A46884204D9A168D9
:1045500003EB010B5A457BDC93426CDCE169D4F838
:1045600024C03A464046E047B0F1000BD6DDB9EB37
:104570000B09CED00120DAF80830A3EB0B035F441F
:10458000A5EB0B05CAF80830002B3FF450AF002D07
:10459000D3D1756833460836002DFAD01F682A46F5
:1045A0000A213846FCF76CFB002872D00130A0EBE2
:1045B0000709C3E722699A4222D36269AA421FD837
:1045C0006FF00043AB4228BF2B46E16993FBF2F347
:1045D000D4F824C002FB03F340465246E047B0F152
:1045E00000099BDDBB68A3EB0903A5EB0905CA44E1
:1045F000BB60002B3FF41BAFB4F90CC023682BE762
:10460000A94528BFA94618464A46514600F036F942
:10461000A2682368A2EB09024B44A2602360002A2F
:10462000E0D121464046FFF701FD0028DAD075E7CA
:10463000A946AB4653E73946019200F01FF9019AAB
:10464000A3689B1AA36023681344236093468EE7F4
:1046500039465A4600F012F923685B44236021462C
:104660004046FFF7E3FC002881D057E7404603F0BF
:1046700027FD034600287FF427AF2169404602F05A
:1046800043F9B4F90C300C22C8F8002023F0800361
:1046900046E76A1C914652E70C22B4F90C30C8F880
:1046A00000203DE700FCFF7F2DE9F84307468846E0
:1046B00016464FF00009D6E90154013D10D4A389F4
:1046C000012B08D9B4F90E3001332146384602D007
:1046D000C04749EA0009013D6B1C04F16804EED1B2
:1046E0003668002EE7D14846BDE8F88310B50C4681
:1046F000B1F90E1000F020FF002803DB236D034406
:10470000236510BDA38923F48053A38110BD00BF8E
:10471000002070472DE9F0410C46B1F90C101F46FE
:10472000CB05054616460BD421F48051A1813B46AA
:10473000B4F90E1032462846BDE8F04100F012BF31
:10474000B4F90E100223002200F0E0FEB4F90C10C0
:10475000EAE700BF10B50C46B1F90E1000F0D6FE26
:10476000B4F90C30421C0EBF23F4805343F4805341
:104770002065A38110BD00BFB1F90E1000F07EBE10
:1047800038B53D4B1B6805460C4613B15A6B002AE1
:104790005AD0B4F90C3019070BD522699AB113F02D
:1047A000010221D19B075ABF6369A360A260002068
:1047B00038BDDA0658D558071CD4226943F00803DF
:1047C000A381002AEBD1990528D5180603F08001B2
:1047D00024D4D80741D49D073CD5A2600029E6D057
:1047E00043F04003A38144E0636900225B42A2607E
:1047F000A361DCE7216B51B104F14002914204D086
:10480000284602F081F8B4F90C30002222632269B4
:104810000021C4E9002123F02403CFE721462846E4
:1048200004F096F8B4F90C30226913F001010FD0AE
:10483000616900204942A060A161002AB7D103F05C
:1048400080010029B3D0CBE71846FFF773FDA0E73E
:10485000980700D46169A160EFE76069A2604042F7
:10486000A0610029A3D0BBE7092243F040032A60DE
:10487000A3814FF0FF3038BD040000208842F0B51E
:1048800014D98B18834211D9032A00EB020166D890
:1048900002F1FF3C4AB16FEA0C0C0A469C4413F843
:1048A000011D02F8011D6345F9D1F0BD032A0FD89F
:1048B000034602F1FF3C002AF7D00CF1010C013B4A
:1048C0008C4411F8012B03F8012F6145F9D1F0BD9B
:1048D00041EA00039B073ED10F2A64D9A2F11003DD
:1048E00001F1100423F00F032031A446194400F114
:1048F000100E5CF8105C4EF8105C5CF80C5C4EF826
:104900000C5C5CF8085C4EF8085C5CF8045C4EF8E3
:10491000045C0CF1100C8C450EF1100EE9D1E1187D
:1049200012F00C0F034402F00F0E03F1100338D005
:104930002EF00305043D1A1F5E198C465CF8044BEB
:1049400042F8044FB242F9D10431043329442B44D4
:104950000EF00302ADE702F1FF3C0346ADE741EA8A
:104960000304A4071F4602D002F1FF3C93E7A2F123
:10497000040E2EF003068E1B4FEA9E0E8C466446F4
:1049800053F8045D4CF8045DB442F8D1CEEB8E735D
:1049900001EB830107EB83073B1F043902F003029D
:1049A00076E7724685E703469646C1E7830730B54A
:1049B00046D08418844604E003F8011B9D0704D008
:1049C0009C46A4456346F7D130BD013A0244A2EBB0
:1049D0000C02032A29D9CCB204EB04240F2A04EBDD
:1049E00004442FD9A2F1100C2CF00F0C03F1100588
:1049F000AC44C3E90044C3E9024410336345F8D131
:104A000012F00C0F02F00F0E18D02EF0030C9C4485
:104A1000AEF104051A4642F8044B6245FBD125F07D
:104A2000030404330EF003022344002ACCD0C9B29D
:104A30001A4403F8011B9342FBD130BD7246F4E7E0
:104A40000346C6E79646E0E740EA01039B0710B538
:104A500001D1032A17D8844601F1FF3E07E01EF872
:104A6000011F03F8011B541E29B19C4622466346D0
:104A7000002AF4D110BD9444002CFBD003F8011B94
:104A80006345FBD110BD8E468446DEF80040A4F19C
:104A9000013323EA040313F0803F71460EF1040E44
:104AA000DAD1043A032A4CF8044BEED87146D3E726
:104AB0002DE9F0410E4600F12008054641463046FA
:104AC00000F07AFD05F140073C46E03521464046BE
:104AD000FBF766FF28B92034AC42F7D13046BDE879
:104AE000F0810649304603F0EDFF39463046203765
:104AF00003F0E8FFAF42F4D1F0E700BF70A6000872
:104B00002DE9F04F00EB41178FB005460E461046D9
:104B100039461446FBF744FF18B938460FB0BDE8D4
:104B2000F08FA3492046FBF73BFF002800F0C1802F
:104B3000A0492046FBF734FF002800F0B38023781B
:104B4000432B00F0BB80613B192B15D86378613B88
:104B5000192B11D8A378A3F16102192A96BFE37823
:104B600004F1020904F103095F2B0AD02E2B00F097
:104B7000BD8213F0BF0F13D0002738460FB0BDE839
:104B8000F08F99F80130413B192BF5D899F8023094
:104B9000413B192BF0D899F8033009F10309E5E7F7
:104BA0000DF118088449404600F006FD99F80030E0
:104BB000402B00F08A824FF00009CA46CB469DF890
:104BC0001830413B342BD7D801A252F823F000BF54
:104BD00043500008794B0008E54F0008794B000866
:104BE000A94F0008794B0008754F0008794B000861
:104BF000D94E0008B94E0008F94D0008794B00085D
:104C0000794B0008794B0008794B0008994D000852
:104C1000794B0008794B0008794D00083D4D00089C
:104C2000EF4C0008794B0008794B0008794B0008DD
:104C3000794B0008794B0008794B0008794B000844
:104C4000794B0008794B0008794B0008794B000834
:104C500043500008794B0008E54F0008794B0008E5
:104C6000A94F0008794B0008754F0008794B0008E0
:104C7000D94E0008B94E0008F94D0008794B0008DC
:104C8000794B0008794B0008794B0008994D0008D2
:104C9000794B0008794B0008794D00083D4D00081C
:104CA000EF4C00080DF118084449404600F084FC20
:104CB00081E74049204600F07FFC39E763782D3BCF
:104CC000012B3FF659AF04F102090DF118084946CE
:104CD000404600F071FC4021404603F027FF08B138
:104CE000002303704046FCF7CBF881445EE734496B
:104CF000404603F0C5FE30B13249404603F0C0FEE5
:104D000000287FF439AF2E49404600F055FC0621BB
:104D10002D4B2E4A0191022E00F0AE81062E04D1B9
:104D2000414605F2322000F047FC2146384600F0AB
:104D300043FC074638460FB0BDE8F08F24490322F4
:104D4000404603F07FFF00287FF416AF9DF81B302C
:104D500020492D2B14BF0DF11B0007A8FBF720FEE7
:104D600000287FF409AF1C49404600F025FC0121D2
:104D70001A4B1B4A0191CEE71A49404603F080FEC8
:104D800000287FF4F9AE1749404600F015FC0221D7
:104D9000154B164A0191BEE71549404603F070FED7
:104DA00000287FF4E9AE1349404600F005FCDEE739
:104DB00074A600087CA6000888A6000880A6000843
:104DC000B4A60008BCA6000861710008A58500080B
:104DD00044A7000848A700084CA700083571000840
:104DE00089850008D8A6000861730008418600087C
:104DF00034A700083CA70008C3490422404603F03A
:104E000021FF00287FF4B8AE9DF81C302D2B06BF83
:104E10009DF81D300DF11D0207AA522B00F02781CD
:104E20001378543B212B3FF6A7AE01A252F823F092
:104E3000655000085B500008794B0008794B00086A
:104E4000794B0008794B0008794B0008794B000832
:104E5000794B0008794B0008794B0008794B000822
:104E6000794B0008794B0008794B0008794B000812
:104E7000794B0008794B0008794B0008794B000802
:104E8000794B0008794B0008794B0008794B0008F2
:104E9000794B0008794B0008794B0008794B0008E2
:104EA000794B0008794B00086F500008794B0008D7
:104EB000655000085B5000089449404603F0E0FD4F
:104EC00000287FF459AE9149404600F075FB082157
:104ED0008F4B904A01911EE78F490322404603F011
:104EE000B1FE00287FF448AE9DF81B308B492D2B76
:104EF00014BF0DF11B0307AB04221846019303F006
:104F0000A1FE00287FF438AE019B1A792D2A14BF28
:104F1000181D581D0A2205A903F020FB421E0F2A66
:104F20003FF62AAE0C2801903FF426AE059A12787F
:104F3000002A7FF421AE7A49404600F03DFB019BF8
:104F400078480A2BC4BF31228DF8212080FB032032
:104F50004FEAE372C2EBA00202EB8202CCBF0DF17A
:104F600022010DF12101A3EB420330330B7000232A
:104F70004B70FCE66C490822404603F063FE0028B3
:104F80007FF4FAAD9DF8203068492D2B14BF08A896
:104F90000DF1210003F074FD00287FF4EDAD6449AC
:104FA000404600F009FBE2E662490322404603F076
:104FB00049FE00287FF4E0AD9DF81B305E492D2BA3
:104FC00014BF0DF11B0007A803F05AFD00287FF461
:104FD000D3AD5A49404600F0EFFA0321584B594AE5
:104FE000019198E69DF8193003F0DF03502B7FF410
:104FF000C3AD554902224046FFF726FD0A2205A906
:105000000DF11A0003F0AAFA059B1B78002B7FF420
:10501000B3ADB0F5697F3FF4BAAE00F3A58040F2BE
:105020006A3398423FF7A8AD40F25133984240F3BB
:10503000B280464BA0F25230C340DB073FF597AE3B
:105040009AE54349404603F01BFD00287FF494ADE8
:105050003F49404600F0B0FA89E63E49404600F03C
:10506000ABFA84E63C49404600F0A6FA7FE63B49AD
:10507000404600F0A1FA7AE6414605F21220CDE959
:10508000022300F099FA029A039B019EC5F8C821F9
:10509000C5F8CC3185F810624146284603F0EAFB9A
:1050A000B9F1000F0BD1BAF1000F08D1012E06D0D3
:1050B0009DF81890B9F1550918BF4FF00109BBF1DF
:1050C000000F0ED1C5F8D0912FE609F1010B24494C
:1050D0005846FBF765FC824658B981464FF0010BF4
:1050E0006DE54FF0FF33C5F8D0311EE609F1010937
:1050F000EBE51C495846FBF753FC814600283ED19E
:1051000083464FF0010A5AE5FCA60008C4A6000831
:10511000B174000815870008E0A60008E4A600089E
:10512000ECA60008676666661CA7000828A70008AA
:105130002CA70008C8A60008CCA60008D0A6000826
:10514000F173000899860008F8A60008A51101016E
:1051500080A600080CA7000814A7000804A70008F0
:1051600094A60008A0A6000840F2654398423FF4C8
:10517000FEADA0F2E24008287FF6F9ADFCE4584607
:105180001049FBF70DFC4FF0000AB0FA80F94FEA26
:105190005919D34613E540F2E12398423FF4E7ADB5
:1051A00009DC40F2B51398423FF4E1ADB0F5347F2D
:1051B0007FF4E2ACDBE540F2073398427FF4DCACED
:1051C000D5E500BFACA6000838B50D460E4904462B
:1051D00001F0D2FC08B1037893B90C4B204653F888
:1051E000251001F0C9FC08B103784BB908492046E5
:1051F00001F0C2FC28B10278064B002A08BF18460D
:1052000038BD044838BD00BF54A700083CAB0008B7
:105210005CA700086804002006292DE9F84F8046A5
:105220006AD88B469246002A00F0A480DFF8F491F9
:105230007D4E09F1C00735464C46294620462034AC
:1052400000F0BAF9BC4205F12005F6D19AF8003019
:10525000BBBBBBF1000F40F09280724F012421468E
:105260004046FFF7B1FF0546FBF70AFE1F28294617
:10527000384641D8013400F09FF9072C07F1200788
:10528000EDD1DFF8A8A1674F5546012431462846E5
:1052900000F092F966483A462146FFF731FC0028B3
:1052A0007ED00134072C05F1200506F1200607F118
:1052B0002007EBD15F49BDE8F84FA1F1E000FFF70F
:1052C000F7BBBBF1000F1ED05046FBF7D9FD1F28DE
:1052D00012D8594C04EB4B145146204600F06CF99F
:1052E000224659465248FFF70BFC52490446A1F1A9
:1052F000E000FFF7DDFB03E01626C8F8006000249D
:105300002046BDE8F88F2F21504603F00FFC0446DD
:10531000002869D042782F2A08BF431C04D11C46BC
:1053200013F8012F2F2AFAD0002AE5D0DFF8F4B0C5
:105330000125A4EB0A021F2ADEDC01325146584641
:1053400003F05CFC23782F2B05F1010503D114F841
:10535000013F2F2BFBD0002B54D0224612F8013FE7
:105360000BB12F2BFAD1072D0BF1200B89D0A246C0
:105370001446DEE7B1B32E4C04EB4114C0E75946A6
:105380004046FFF721FF0546FBF77AFD1F28B3D8FB
:10539000294C04EB4B142946204600F00DF99FE7F9
:1053A000012CD8F80060A8D0012506E00135A542FF
:1053B00009F120090AF1200A9FD05146484600F021
:1053C000FBF81B484A462946FFF79AFB0028EDD117
:1053D0001A49484600F0F0F84A4629461448FFF7B3
:1053E0008FFBE3E7134C8BE75046FBF749FD1F2883
:1053F00082D80C4C20465146203400F0DDF8BC42E7
:10540000F8D13EE7072D3FF43CAF0B4C04EB4514BD
:10541000A4F120012046203400F0CEF8BC42F7D1A0
:105420002FE700BF440B002034020020640A002054
:1054300014020020F4020020240B00207CA60008A7
:10544000014B93F8100270471402002010B4044C72
:1054500003460A46206810BC1946FFF7DDBE00BFB0
:105460000400002000F5EC70704700BF0048704752
:10547000EC03002000487047EC03002038B5074DCE
:105480000022044608462A60FBF7ECF9431C00D0D2
:1054900038BD2B68002BFBD0236038BD080C0020E2
:1054A000194B1B6883422ED0416C70B5054681B103
:1054B00000268C593CB121462468284601F024FA84
:1054C000002CF8D1696C0436802EF2D1284601F008
:1054D0001BFAA96B11B1284601F016FA2C6C34B1F5
:1054E00021462468284601F00FFA002CF8D1E96C17
:1054F00011B1284601F008FA6B6B1BB12846BDE8D4
:105500007040184770BD70470400002038B50D4644
:10551000084C8446114628461A46002323606546F7
:10552000FBF7C4F9431C00D038BD2368002BFBD027
:105530002B6038BD080C002038B50D46084C844659
:10554000114628461A46002323606546FBF7BAF940
:10555000431C00D038BD2368002BFBD02B6038BD26
:10556000080C002038B50D46084C844611462846E4
:105570001A46002323606546FBF758F9431C00D008
:1055800038BD2368002BFBD02B6038BD080C0020F1
:10559000704700BF704700BF704700BF704700BF33
:1055A000704700BF704700BF01207047012070475F
:1055B000704700BF704700BF80EA0102844612F0C6
:1055C000030F4FD111F0030F32D14DF8044D11F0FC
:1055D000040F51F8043B0BD0A3F101329A4312F0AF
:1055E000803F04BF4CF8043B51F8043B16D100BF88
:1055F00051F8044BA3F101329A4312F0803FA4F119
:1056000001320BD14CF8043BA24312F0803F04BF9F
:1056100051F8043B4CF8044BEAD023460CF8013B0C
:1056200013F0FF0F4FEA3323F8D15DF8044B7047B6
:1056300011F0010F06D011F8012B0CF8012B002AF4
:1056400008BF704711F0020FBFD031F8022B12F0E3
:10565000FF0F16BF2CF8022B8CF8002012F47F4F9E
:10566000B3D1704711F8012B0CF8012B002AF9D1A6
:10567000704700BFDFF85CC0F8B521F00043002799
:10568000634504460D461646176020D8844653EA03
:105690000C0C1CD0DFF840C001EA0C0C0A46BCF12F
:1056A000000F09D10D4B0022FBF73CFF6FF03507CF
:1056B00004460A4621F000431B156FF31E52A3F265
:1056C000FE3342F07F553B4445F4001533602046DD
:1056D0002946F8BDFFFFEF7F0000F07F0000504338
:1056E0002DE9F04F03690C69A34283B0C0F28A80B0
:1056F000013C01F1140500F1140855F8243058F864
:10570000242001339A428E4681464FEA840105EBFC
:10571000840708EB840AB2FBF3F63AD3CDE900150F
:105720000022AC46404613465CF8041B05681FFA8D
:1057300081FB06FB0B22090C4FEA124B06FB01BB57
:1057400092B2A9B2891A19441FFA8BF3C3EB214311
:1057500003EB154389B241EA0341674540F8041B56
:105760004FEA1B424FEA2343DED2DDE9001558F829
:10577000013073B9AAF1040AD04504D307E0D0453B
:1057800004F1FF3403D25AF80439002BF7D0C9F8DA
:1057900010407146484602F033FA00282EDB41469D
:1057A000002255F8040BD1F800C01FFA80FE1FFA42
:1057B0008CF3A3EB0E031344020CC2EB234202EB67
:1057C0001C429BB243EA0243AF4241F8043B4FEA1A
:1057D0002242E6D258F8242008EB84036AB9043B3D
:1057E000434504D807E0984504F1FF3403D253F849
:1057F0000429002AF7D0C9F810400136304603B01A
:10580000BDE8F08F002003B0BDE8F08F000000007D
:105810002DE9F04F816B9FB016461F46CDE9046716
:105820002B9D044641B1C26B4A60012393408B60BB
:1058300001F010FF0023A363B7F10009B4BF0123F7
:1058400000232B60B24BBCBF29F00049CDF8149067
:1058500033EA090300F0A380DDE90423104619466A
:1058600000220023CDE90201FCF7C4F8824668B1AA
:105870002A9A012313602C9B13B12C9AA54B136019
:10588000A54B079307981FB0BDE8F08F1CAB0193A1
:105890001DAB00932046DDE9022302F011FB5FEA15
:1058A0001955DDF87080099040F08F801D9D4544AA
:1058B00005F23243202B40F32A82C3F1400309FA58
:1058C00003F905F2124326FA03F349EA0300FBF752
:1058D000AFFD0122013DA1F1F8731092194600229B
:1058E0008E4BFBF767FC84A3D3E90023FBF71AFE7A
:1058F00083A3D3E90023FBF75FFC064628460F4647
:10590000FBF7A6FD80A3D3E90023FBF70BFE0246BD
:105910000B4630463946FBF74FFC06460F46FCF770
:10592000B1F8002281460890002330463946FCF742
:105930006BF8002840F01181A8EB0508089D162D92
:1059400008F1FF3B00F2F480754A02EBC503D3E98E
:105950000023DDE90201FCF757F8002840F0D1816F
:10596000B8F1000F40F38A850D90AB440C950A9076
:1059700000230B93289B092B3BD8052BC4BF043B6A
:105980002893289BA3F10203CCBF00250125032BFC
:1059900031D8DFE813F0EE02EB02E002C5012A9AEB
:1059A000C9F3130942F20F7359EA0609136019D1BA
:1059B0002C9B002B00F03D875A4B079308332C9A01
:1059C000079813601FB0BDE8F08FDDE90201C1F355
:1059D000130343F07F53A5F2FF35CDF840A043F405
:1059E00040137BE72C9B002B40F096814E4B079396
:1059F00048E7002328930025E5632946204601F067
:105A000003FE0790002800F0AE86079BA3631D9B52
:105A1000002BC0F2B080089A0E2A00F3AC80404BF5
:105A200003EBC203D3E90067DDE9028932463B4656
:105A300040464946CDE90467FBF79EFEFCF722F895
:105A40000546FBF705FD32463B46FBF76BFD0B4673
:105A5000024649464046FBF7ADFB05F13003079D82
:105A600005F8013B4FF0FF3A02944FF0010954460C
:105A7000DDE904AB1DE052465B4630463946FBF794
:105A80007BFEFBF7FFFF8046FBF7E2FC52465B46DE
:105A9000FBF748FD09F101090B460246394630463D
:105AA000FBF788FB08F13003A14505F8013B00F046
:105AB00043851E4B0022FBF735FD002200230646DE
:105AC0000F46FBF797FF0028D5D0089F029C0137AF
:105AD000AB460999204601F0BDFD00238BF800304C
